:100000000C942A000C9447000C9447000C94470071
:100010000C9447000C9447000C9447000C94230662
:100020000C9447000C9450060C9447000C94470025
:100030000C9447000C9447000C9447000C94470024
:100040000C9447000C9447000C9447000C94470014
:100050000C94470011241FBECFE5D8E0DEBFCDBF12
:1000600010E0A0E6B0E0E2E2F4E202C005900D92FA
:10007000A63CB107D9F710E0A6ECB0E001C01D9294
:10008000AB3CB107E1F70E94A8100C940F120C943E
:100090000000EF92FF920F931F937B018C0120E0F1
:1000A00030E040E05FE40E94490388238CF0C801FF
:1000B000B70120E030E040E05FE40E94C1010E940F
:1000C000A9039B01AC01205030404040504806C07D
:1000D000C801B7010E94A9039B01AC01B901CA0183
:1000E0001F910F91FF90EF900895A0E0B0E0EBE733
:1000F000F0E00C94A711DC012B01FA019C919230E5
:1001000008F439C1EB018881823008F433C194309E
:1001100069F4843009F02FC111969C91119789815F
:10012000981709F428C1AEEBB0E025C1843009F47A
:1001300021C18230A9F4923009F01DC19A01AD01AC
:1001400088E0EA010990AE01E90109929E0181501F
:10015000C1F7E201898111969C918923818308C1AD
:10016000923009F407C112962D903C901397EB0141
:100170008A819B811496AD90BD90CD90DC901797AD
:10018000EC80FD800E811F819101281B390BB90184
:1001900037FF04C066277727621B730B6032710537
:1001A0000CF061C0121613066CF537014801062EDB
:1001B00004C096948794779467940A94D2F721E0C8
:1001C00030E040E050E004C0220F331F441F551FB1
:1001D0006A95D2F721503040404050402E213F21B7
:1001E00040235123211531054105510521F021E01E
:1001F00030E040E050E079018A01E628F72808293C
:1002000019293CC0232BD1F1260E371E350146019A
:10021000062E04C096948794779467940A94D2F734
:1002200021E030E040E050E004C0220F331F441FC3
:10023000551F6A95D2F721503040404050402A2146
:100240003B214C215D21211531054105510521F04E
:1002500021E030E040E050E059016A01A628B728CB
:10026000C828D9280BC0821593052CF01C01AA249C
:10027000BB24650103C0EE24FF24870111969C91E5
:10028000D20111968C91981709F445C0992339F041
:10029000A80197012A193B094C095D0906C0A6016E
:1002A00095012E193F09400B510B57FD08C01182D3
:1002B0003382228224833583468357831DC081E0A5
:1002C00081833382228288279927DC01821B930B4A
:1002D000A40BB50B84839583A683B7830DC0220F2F
:1002E000331F441F551F24833583468357838281E0
:1002F000938101979383828324813581468157813D
:10030000DA01C9010197A109B1098F5F9F4FAF4F72
:10031000BF4328F30BC0918333822282EA0CFB1C7B
:100320000C1D1D1DE482F5820683178383E0808304
:10033000248135814681578157FF1AC0C901AA27F8
:1003400097FDA095BA2F81709070A070B0705695EF
:10035000479537952795822B932BA42BB52B848318
:100360009583A683B7838281938101969383828349
:10037000DF0101C0D201CD01CDB7DEB7E2E10C94BF
:10038000C311A0E2B0E0E7ECF1E00C94B311698393
:100390007A838B839C832D833E834F835887E9E048
:1003A000EE2EF12CEC0EFD1ECE010196B7010E943F
:1003B000D2048E010F5E1F4FCE010596B8010E9438
:1003C000D2048A8991E089278A8BC701B801AE01DE
:1003D000475E5F4F0E9475000E94FD03A096E6E015
:1003E0000C94CF11A0E2B0E0E8EFF1E00C94B3116F
:1003F00069837A838B839C832D833E834F835887C5
:10040000F9E0EF2EF12CEC0EFD1ECE010196B701A6
:100410000E94D2048E010F5E1F4FCE010596B801D7
:100420000E94D204C701B801AE01475E5F4F0E942F
:1004300075000E94FD03A096E6E00C94CF11A0E2A7
:10044000B0E0E5E2F2E00C94A71169837A838B8334
:100450009C832D833E834F835887CE010196BE0136
:10046000675F7F4F0E94D204CE010596BE016F5E8A
:100470007F4F0E94D2049985923088F0898982301A
:10048000C8F0943019F4823051F404C0843029F457
:10049000923081F48EEB90E0C6C0923049F420E0B7
:1004A0009A858A89981321E02A87CE010996BBC0D4
:1004B000823049F420E09A858A89981321E02A8BBA
:1004C000CE014196B0C02D843E844F8458886D88FB
:1004D0007E888F88988CEE24FF248701AA24BB2471
:1004E000650140E050E060E070E0E0E0F0E0C10174
:1004F00081709070892BE9F0E60CF71C081D191D1E
:100500009A01AB012A0D3B1D4C1D5D1D80E090E062
:10051000A0E0B0E0E614F7040805190520F481E036
:1005200090E0A0E0B0E0BA01A901480F591F6A1F8E
:100530007B1FAA0CBB1CCC1CDD1C97FE08C081E0F5
:1005400090E0A0E0B0E0A82AB92ACA2ADB2A3196B6
:10055000E032F10549F0660C771C881C991C569412
:10056000479437942794C3CFFA85EA892B893C892D
:100570008B859C85280F391F2E5F3F4F17C0CA01FE
:1005800081709070892B61F016950795F794E79428
:1005900080E090E0A0E0B0E8E82AF92A0A2B1B2BC3
:1005A00076956795579547952F5F3F4F77FDE7CF36
:1005B0000CC0440F551F661F771F17FD4160EE0CDE
:1005C000FF1C001F111F21503040403090E05907A0
:1005D00090E0690790E4790760F32B8F3C8FDB0193
:1005E000CA018F779070A070B07080349105A1051A
:1005F000B10561F447FD0AC0E114F10401051105DC
:1006000029F0405C5F4F6F4F7F4F40781A8EFE1786
:1006100011F081E08A8F4D8F5E8F6F8F78A383E01A
:10062000898FCE0149960E94FD03A096E2E10C94C9
:10063000C311A8E1B0E0EFE1F3E00C94B3116983DA
:100640007A838B839C832D833E834F83588789E0F5
:10065000E82EF12CEC0EFD1ECE010196B7010E9492
:10066000D2048E010F5E1F4FCE010596B8010E9485
:10067000D2048985823040F08989823028F0C70110
:10068000B8010E944A0501C08FEF6896E6E00C941D
:10069000CF11A8E1B0E0EFE4F3E00C94B31169836B
:1006A0007A838B839C832D833E834F83588789E095
:1006B000E82EF12CEC0EFD1ECE010196B7010E9432
:1006C000D2048E010F5E1F4FCE010596B8010E9425
:1006D000D2048985823040F08989823028F0C701B0
:1006E000B8010E944A0501C08FEF6896E6E00C94BD
:1006F000CF11A8E1B0E0EFE7F3E00C94B311698308
:100700007A838B839C832D833E834F83588789E034
:10071000E82EF12CEC0EFD1ECE010196B7010E94D1
:10072000D2048E010F5E1F4FCE010596B8010E94C4
:10073000D2048985823040F08989823028F0C7014F
:10074000B8010E944A0501C081E06896E6E00C9479
:10075000CF11ACE0B0E0EFEAF3E00C94B71169839D
:100760007A838B839C83CE010196BE016B5F7F4FA2
:100770000E94D2048D81823061F1823050F1843048
:1007800021F48E81882351F12EC02F81388537FDC9
:1007900020C06E812F3131051CF06623F9F023C093
:1007A0008EE190E0821B930B29853A854B855C8511
:1007B00004C056954795379527958A95D2F76623B5
:1007C000B1F050954095309521953F4F4F4F5F4F79
:1007D0000EC020E030E040E050E009C02FEF3FEFD6
:1007E0004FEF5FE704C020E030E040E050E8B9019F
:1007F000CA012C96E2E00C94D311DF92EF92FF92A3
:100800000F931F93FC01E480F58006811781D1804E
:100810008081823048F480E090E0A0E1B0E0E82AF6
:10082000F92A0A2B1B2BA5C0843009F49FC0823003
:1008300021F4EE24FF24870105C0E114F104010531
:10084000110519F4E0E0F0E096C0628173819FEF3A
:10085000623879070CF05BC022E83FEF261B370BAC
:100860002A3131052CF020E030E040E050E02AC091
:10087000B801A701022E04C0769567955795479554
:100880000A94D2F781E090E0A0E0B0E004C0880FC5
:10089000991FAA1FBB1F2A95D2F70197A109B10979
:1008A0008E219F21A023B1230097A105B10521F03E
:1008B00081E090E0A0E0B0E09A01AB01282B392B59
:1008C0004A2B5B2BDA01C9018F779070A070B07052
:1008D00080349105A105B10539F427FF09C0205CDA
:1008E0003F4F4F4F5F4F04C0215C3F4F4F4F5F4F13
:1008F000E0E0F0E02030A0E03A07A0E04A07A0E402
:100900005A0710F0E1E0F0E079018A0127C0603871
:10091000710564F5FB01E158FF4FD801C7018F77DE
:100920009070A070B07080349105A105B10539F4C4
:10093000E7FE0DC080E490E0A0E0B0E004C08FE3EB
:1009400090E0A0E0B0E0E80EF91E0A1F1B1F17FFA1
:1009500005C016950795F794E794319687E01695AC
:100960000795F794E7948A95D1F705C0EE24FF2404
:100970008701EFEFF0E06E2F679566276795902F60
:100980009F77D794DD24D7948E2F8695492F462BB9
:10099000582F5D29B701CA011F910F91FF90EF9069
:1009A000DF900895FC01DB01408151812281622F9B
:1009B0006F7770E0221F2227221F9381892F880FD3
:1009C000822B282F30E0991F9927991F11969C930D
:1009D000119721153105A9F54115510561057105DD
:1009E00011F482E037C082E89FEF13969C938E93B8
:1009F00012979A01AB0167E0220F331F441F551F66
:100A00006A95D1F783E08C930DC0220F331F441FEA
:100A1000551F12968D919C911397019713969C9355
:100A20008E931297203080E0380780E0480780E4FA
:100A3000580758F314962D933D934D935C93179755
:100A400008952F3F310579F4411551056105710570
:100A500019F484E08C93089564FF03C081E08C93C3
:100A600012C01C9210C02F57304013963C932E9307
:100A7000129783E08C9387E0440F551F661F771F02
:100A80008A95D1F7706414964D935D936D937C9322
:100A9000179708951F93DC01FB019C91923008F495
:100AA00047C08081823008F443C0943051F41196DD
:100AB0001C91843099F58181682F70E0611B710968
:100AC0003FC0843021F0923031F48230B9F181811D
:100AD000882389F12DC011961C9111978230F1F075
:100AE00081811817D9F412962D913C911397828128
:100AF00093818217930794F028173907BCF0149656
:100B00008D919D910D90BC91A02D248135814681C0
:100B10005781281739074A075B0718F4112341F05A
:100B20000AC082179307A407B50740F4112319F0F0
:100B300061E070E005C06FEF7FEF02C060E070E041
:100B4000CB011F910895DF93CF9300D0CDB7DEB7CF
:100B50009A838983AEE4B0E0EEE4F0E08081282F50
:100B6000277FE981FA818581882F90E0880F991F7E
:100B7000880F991F880F991F822B8C93ACE4B0E0EB
:100B8000E981FA818081918111969C938E93E9810C
:100B9000FA818581882389F0AAE4B0E0E981FA81AD
:100BA0008281938111969C938E93A9E5B0E0E9E54B
:100BB000F0E0808180618C9307C0A9E5B0E0E9E5B1
:100BC000F0E0808184608C93AEE4B0E0EEE4F0E08D
:100BD0008081982F987FE981FA818481892B8C9379
:100BE0000F900F90CF91DF910895DF93CF93CDB702
:100BF000DEB7AEE4B0E0EEE4F0E08081887F8C9375
:100C0000A9E5B0E0E9E5F0E080818F7E8C93A9E56D
:100C1000B0E0E9E5F0E080818B7F8C93CF91DF91AC
:100C20000895DF93CF9300D0CDB7DEB79A83898341
:100C300089819A819093C7008093C6000F900F908E
:100C4000CF91DF9108951F920F920FB60F9211244A
:100C50002F933F934F935F936F937F938F939F93C4
:100C6000AF93BF93EF93FF93DF93CF93CDB7DEB7EF
:100C7000E091C600F091C7000995CF91DF91FF91F7
:100C8000EF91BF91AF919F918F917F916F915F9104
:100C90004F913F912F910F900FBE0F901F9018957D
:100CA0001F920F920FB60F9211242F933F934F93E1
:100CB0005F936F937F938F939F93AF93BF93EF93C4
:100CC000FF93DF93CF93CDB7DEB7E091C600F091ED
:100CD000C7000995CF91DF91FF91EF91BF91AF913F
:100CE0009F918F917F916F915F914F913F912F9144
:100CF0000F900FBE0F901F901895DF93CF930F9218
:100D0000CDB7DEB78983A3E5B0E0E3E5F0E080810D
:100D100080648C93A3E5B0E0E3E5F0E08081886037
:100D20008C93A3E5B0E0E3E5F0E0808180628C93F2
:100D3000A3E5B0E0E3E5F0E0808182608C93E2E53A
:100D4000F0E01082ECE5F0E08981482F50E0CA0124
:100D50009C01220F331FC9019695982F88279795DC
:100D60008795821B930B840F951F24E630E0B90111
:100D70000E947111CB01808381E063E041E00E9419
:100D8000A3070F90CF91DF910895DF93CF9300D009
:100D900000D000D0CDB7DEB76B837C838D839E837C
:100DA0001A821982EBE2F0E082E08083EAE2F0E06E
:100DB00088E18083E0E4F0E086E880838B819C8199
:100DC000AD81BE81880F991FAA1FBB1F880F991F75
:100DD000AA1FBB1F880F991FAA1FBB1F9C01AD0133
:100DE00080E492E4AFE0B0E0BC01CD010E94851147
:100DF000DA01C90101979A838983E0E4F0E08981EF
:100E00009A81892F99278083E9E2F0E089818083A4
:100E100026960FB6F894DEBF0FBECDBFCF91DF91FF
:100E20000895DF93CF930F92CDB7DEB78983EBE2BE
:100E3000F0E08081882F90E0807290700097B9F385
:100E4000ECE2F0E0898180830F90CF91DF910895EB
:100E5000DF93CF93CDB7DEB7EBE2F0E0808188235C
:100E6000DCF7ECE2F0E08081CF91DF910895DF9331
:100E7000CF9300D00F92CDB7DEB79B838A831982C0
:100E80000EC08981282F30E08A819B81FC01E20F0E
:100E9000F31F80810E94110789818F5F8983898177
:100EA000282F30E08A819B81FC01E20FF31F8081B3
:100EB000882339F70F900F900F90CF91DF9108950D
:100EC0000F931F93DF93CF9300D00F92CDB7DEB770
:100ED0009B838A8319828981282F30E08A819B81B4
:100EE0008C01020F131F0E942807F80180830FC096
:100EF00089818F5F89838981282F30E08A819B8156
:100F00008C01020F131F0E942807F801808389813A
:100F1000282F30E08A819B81FC01E20FF31F808142
:100F2000833231F78981282F30E08A819B81FC014F
:100F3000E20FF31F10820F900F900F90CF91DF916F
:100F40001F910F910895DF93CF93CDB7DEB7279709
:100F50000FB6F894DEBF0FBECDBF8B836C834D837D
:100F60008B81282F30E03F832E838E819F818130BB
:100F70009105D1F02E813F81223031052CF48E81F4
:100F80009F81009761F01EC02E813F812230310584
:100F900081F08E819F818330910581F013C08AE3B7
:100FA00090E09A8389830EC087E390E09A838983D7
:100FB00009C084E390E09A83898304C081E390E0D0
:100FC0009A8389838D818823A9F4E981FA818081BC
:100FD000482F8C81282F30E081E090E0022E02C063
:100FE000880F991F0A94E2F780958423E981FA819A
:100FF000808313C0E981FA818081482F8C81282F5A
:1010000030E081E090E0022E02C0880F991F0A9420
:10101000E2F7842BE981FA81808327960FB6F89452
:10102000DEBF0FBECDBFCF91DF910895DF93CF9389
:1010300000D000D000D0CDB7DEB78B836C838B811E
:10104000282F30E03E832D838D819E818130910554
:10105000D1F02D813E81223031052CF48D819E818D
:10106000009761F01EC02D813E812230310581F054
:101070008D819E818330910581F013C08AE390E0D9
:101080009A8389830EC087E390E09A83898309C09D
:1010900084E390E09A83898304C081E390E09A839B
:1010A0008983E981FA818C81808326960FB6F89432
:1010B000DEBF0FBECDBFCF91DF910895DF93CF93F9
:1010C00000D000D000D0CDB7DEB78B836C838B818E
:1010D000282F30E03E832D834D815E8141305105C4
:1010E000D9F08D819E818230910534F42D813E812D
:1010F0002115310561F01EC04D815E8142305105E0
:1011000081F08D819E818330910581F013C089E348
:1011100090E09A8389830EC086E390E09A83898366
:1011200009C083E390E09A83898304C080E390E060
:101130009A838983E981FA818081482F50E08C81EC
:10114000282F30E081E090E002C0880F991F2A9597
:10115000E2F79A01282339238C81882F90E0A90196
:1011600002C0559547958A95E2F7CA0126960FB6B3
:10117000F894DEBF0FBECDBFCF91DF910895DF930E
:10118000CF93CDB7DEB727970FB6F894DEBF0FBE6B
:10119000CDBF8B836C834D838B81282F30E03F83C1
:1011A0002E838E819F8181309105D1F02E813F81E8
:1011B000223031052CF48E819F81009761F01EC092
:1011C0002E813F812230310581F08E819F818330D5
:1011D000910581F013C08BE390E09A8389830EC060
:1011E00088E390E09A83898309C085E390E09A833D
:1011F000898304C082E390E09A8389838D81813062
:10120000A1F4E981FA818081482F8C81282F30E078
:1012100081E090E0022E02C0880F991F0A94E2F745
:10122000842BE981FA81808314C0E981FA8180816D
:10123000482F8C81282F30E081E090E0022E02C000
:10124000880F991F0A94E2F780958423E981FA8137
:10125000808327960FB6F894DEBF0FBECDBFCF9127
:10126000DF910895DF93CF9300D000D00F92CDB7D8
:10127000DEB78B838B81282F30E03D832C838C81DC
:101280009D8181309105D1F02C813D812230310545
:101290002CF48C819D81009761F01EC02C813D81D2
:1012A0002230310581F08C819D818330910581F060
:1012B00013C089E390E09A8389830EC086E390E0AF
:1012C0009A83898309C083E390E09A83898304C069
:1012D00080E390E09A838983E981FA8180810F908D
:1012E0000F900F900F900F90CF91DF910895DF93A3
:1012F000CF9300D000D000D0CDB7DEB78B836C8306
:101300008B81282F30E03E832D838D819E8181301B
:101310009105D1F02D813E81223031052CF48D8153
:101320009E81009761F01EC02D813E8122303105E3
:1013300081F08D819E818330910581F013C08BE314
:1013400090E09A8389830EC088E390E09A83898332
:1013500009C085E390E09A83898304C082E390E02A
:101360009A838983E981FA818C81808326960FB6DE
:10137000F894DEBF0FBECDBFCF91DF910895DF930C
:10138000CF93CDB7DEB760970FB6F894DEBF0FBE30
:10139000CDBF81E064E040E00E94A30781E065E00A
:1013A00040E00E94A30781E066E040E00E94A307BE
:1013B00081E067E040E00E94A30781E060E040E058
:1013C0000E94A30781E061E040E00E94A30781E062
:1013D00062E040E00E94A30781E063E040E00E94F9
:1013E000A3071F86B3C08F85982F9C5F81E0692F6C
:1013F00041E00E94A3078F85982F9C5F81E0692FB1
:1014000040E00E94BF08188A92C081E068890E946B
:101410005E08882309F088C080E090E0A8E4B3E487
:101420008B879C87AD87BE876B857C858D859E85E8
:1014300020E030E04AE753E40E941F02DC01CB01C8
:101440008F839887A987BA876F81788589859A85E0
:1014500020E030E040E85FE30E94790388232CF429
:1014600081E090E09E838D833FC06F817885898580
:101470009A8520E03FEF4FE757E40E9419031816C2
:101480004CF56B857C858D859E8520E030E040E2C3
:1014900051E40E941F02DC01CB01BC01CD010E947E
:1014A0004900DC01CB019E838D830FC089E190E070
:1014B0009C838B838B819C810197F1F79C838B8329
:1014C0008D819E8101979E838D838D819E81009762
:1014D00069F714C06F81788589859A850E944900D3
:1014E000DC01CB019E838D838D819E819A838983CC
:1014F00089819A810197F1F79A8389838F85882F53
:1015000090E0880F991F880F991F982F8889890F5D
:101510008F5F0E94AB0A60960FB6F894DEBF0FBED5
:10152000CDBFCF91DF91089588898F5F888B88899F
:10153000843008F46ACF8F85982F9C5F81E0692FF3
:1015400040E00E94A3078F858F5F8F878F8584304F
:1015500008F449CF46CFDF93CF9300D000D0CDB76A
:10156000DEB78A8319828A81282F30E03C832B835F
:101570008B819C818830910509F46FC02B813C815F
:101580002930310554F58B819C818430910509F413
:1015900058C02B813C812530310594F48B819C818E
:1015A0008230910509F447C02B813C8123303105FD
:1015B0000CF044C08B819C8181309105C9F167C0DA
:1015C0002B813C812630310509F441C08B819C81FF
:1015D000873091050CF03EC037C02B813C812C3008
:1015E000310509F445C08B819C818D3091055CF4F7
:1015F0002B813C812A303105A9F18B819C818B3074
:1016000091059CF52CC02B813C812E303105B1F128
:101610008B819C818E30910574F12B813C812F3020
:10162000310579F18B819C818031910569F12FC061
:1016300087E089832EC084E089832BC081E0898381
:1016400028C08DE0898325C088E0898322C085E099
:1016500089831FC082E089831CC019821AC089E077
:10166000898317C086E0898314C083E0898311C011
:101670008DE389830EC085E289830BC08AE289836A
:1016800008C08DE2898305C08BE2898302C08A810C
:10169000898389810F900F900F900F90CF91DF91E8
:1016A0000895DF93CF93CDB7DEB72E970FB6F8949A
:1016B000DEBF0FBECDBF82E061E041E00E94A30724
:1016C00082E062E041E00E94A30780E090E0A0EAAF
:1016D000B1E48B879C87AD87BE876B857C858D85C4
:1016E0009E8520E030E04AE753E40E941F02DC01BF
:1016F000CB018F839887A987BA876F817885898581
:101700009A8520E030E040E85FE30E947903882377
:101710002CF481E090E09E838D833FC06F817885BB
:1017200089859A8520E03FEF4FE757E40E9419032F
:1017300018164CF56B857C858D859E8520E030E004
:1017400040E251E40E941F02DC01CB01BC01CD014B
:101750000E944900DC01CB019E838D830FC089E18B
:1017600090E09C838B838B819C810197F1F79C8314
:101770008B838D819E8101979E838D838D819E8138
:10178000009769F714C06F81788589859A850E94D2
:101790004900DC01CB019E838D838D819E819A83DC
:1017A000898389819A810197F1F79A83898380E0FF
:1017B0006FEF0E94160888E30E94ED0B8CE00E94F8
:1017C000ED0B81E00E94ED0B2E960FB6F894DEBF74
:1017D0000FBECDBFCF91DF910895DF93CF93CDB7EB
:1017E000DEB7E9970FB6F894DEBF0FBECDBF89AF65
:1017F00082E061E040E00E94BF0880E090E0A0E865
:10180000BFE38DAB9EABAFABB8AF6DA97EA98FA97F
:1018100098AD20E030E04AE753E40E941F02DC016B
:10182000CB0189AB9AABABABBCAB69A97AA98BA94D
:101830009CA920E030E040E85FE30E947903882320
:101840002CF481E090E098AB8FA73FC069A97AA9FA
:101850008BA99CA920E03FEF4FE757E40E941903B2
:1018600018164CF56DA97EA98FA998AD20E030E03F
:1018700040E251E40E941F02DC01CB01BC01CD011A
:101880000E944900DC01CB0198AB8FA70FC089E112
:1018900090E09EA78DA78DA59EA50197F1F79EA725
:1018A0008DA78FA598A9019798AB8FA78FA598A909
:1018B000009769F714C069A97AA98BA99CA90E940D
:1018C0004900DC01CB0198AB8FA78FA598A99CA7F5
:1018D0008BA78BA59CA50197F1F79CA78BA782E00E
:1018E00062E041E00E94BF0880E090E0A0E8BFE332
:1018F0008FA398A7A9A7BAA76FA178A589A59AA52C
:1019000020E030E04AE753E40E941F02DC01CB01F3
:101910008BA39CA3ADA3BEA36BA17CA18DA19EA113
:1019200020E030E040E85FE30E94790388232CF454
:1019300081E090E09AA389A33FC06BA17CA18DA117
:101940009EA120E03FEF4FE757E40E9419031816CD
:101950004CF56FA178A589A59AA520E030E040E27A
:1019600051E40E941F02DC01CB01BC01CD010E94A9
:101970004900DC01CB019AA389A30FC089E190E063
:1019800098A38F8F8F8D98A10197F1F798A38F8FD0
:1019900089A19AA101979AA389A389A19AA10097E5
:1019A00069F714C06BA17CA18DA19EA10E94490082
:1019B000DC01CB019AA389A389A19AA19E8F8D8F67
:1019C0008D8D9E8D0197F1F79E8F8D8F80E069AD93
:1019D0000E94770980E090E0A0E8BFE3898F9A8FAA
:1019E000AB8FBC8F698D7A8D8B8D9C8D20E030E024
:1019F0004AE753E40E941F02DC01CB018D8B9E8BD2
:101A0000AF8BB88F6D897E898F89988D20E030E00B
:101A100040E85FE30E94790388232CF481E090E0A2
:101A20009C8B8B8B3FC06D897E898F89988D20E040
:101A30003FEF4FE757E40E94190318164CF5698DE4
:101A40007A8D8B8D9C8D20E030E040E251E40E9445
:101A50001F02DC01CB01BC01CD010E944900DC0169
:101A6000CB019C8B8B8B0FC089E190E09A8B898B8B
:101A700089899A890197F1F79A8B898B8B899C893F
:101A800001979C8B8B8B8B899C89009769F714C07D
:101A90006D897E898F89988D0E944900DC01CB0178
:101AA0009C8B8B8B8B899C89988B8F878F85988952
:101AB0000197F1F7988B8F8782E062E040E00E9407
:101AC000BF0880E090E0A0E8BFE38B879C87AD87EC
:101AD000BE876B857C858D859E8520E030E04AE75A
:101AE00053E40E941F02DC01CB018F839887A987F2
:101AF000BA876F81788589859A8520E030E040E853
:101B00005FE30E94790388232CF481E090E09E83B8
:101B10008D833FC06F81788589859A8520E03FEF6E
:101B20004FE757E40E94190318164CF56B857C8526
:101B30008D859E8520E030E040E251E40E941F0246
:101B4000DC01CB01BC01CD010E944900DC01CB01CD
:101B50009E838D830FC089E190E09C838B838B8172
:101B60009C810197F1F79C838B838D819E810197E6
:101B70009E838D838D819E81009769F714C06F814C
:101B8000788589859A850E944900DC01CB019E8376
:101B90008D838D819E819A83898389819A81019722
:101BA000F1F79A838983E9960FB6F894DEBF0FBEEA
:101BB000CDBFCF91DF910895DF93CF93CDB7DEB73F
:101BC000E9970FB6F894DEBF0FBECDBF89AF82E0B4
:101BD00061E041E00E94BF0880E090E0A0E8BFE340
:101BE0008DAB9EABAFABB8AF6DA97EA98FA998ADF9
:101BF00020E030E04AE753E40E941F02DC01CB0101
:101C000089AB9AABABABBCAB69A97AA98BA99CA9F0
:101C100020E030E040E85FE30E94790388232CF461
:101C200081E090E098AB8FA73FC069A97AA98BA902
:101C30009CA920E03FEF4FE757E40E9419031816D4
:101C40004CF56DA97EA98FA998AD20E030E040E267
:101C500051E40E941F02DC01CB01BC01CD010E94B6
:101C60004900DC01CB0198AB8FA70FC089E190E060
:101C70009EA78DA78DA59EA50197F1F79EA78DA77D
:101C80008FA598A9019798AB8FA78FA598A90097C2
:101C900069F714C069A97AA98BA99CA90E94490077
:101CA000DC01CB0198AB8FA78FA598A99CA78BA728
:101CB0008BA59CA50197F1F79CA78BA782E062E01A
:101CC00041E00E94BF0880E090E0A0E8BFE38FA35E
:101CD00098A7A9A7BAA76FA178A589A59AA520E07A
:101CE00030E04AE753E40E941F02DC01CB018BA3E2
:101CF0009CA3ADA3BEA36BA17CA18DA19EA120E05E
:101D000030E040E85FE30E94790388232CF481E00F
:101D100090E09AA389A33FC06BA17CA18DA19EA155
:101D200020E03FEF4FE757E40E94190318164CF5E7
:101D30006FA178A589A59AA520E030E040E251E4A2
:101D40000E941F02DC01CB01BC01CD010E944900B1
:101D5000DC01CB019AA389A30FC089E190E098A38D
:101D60008F8F8F8D98A10197F1F798A38F8F89A1FD
:101D70009AA101979AA389A389A19AA1009769F7CB
:101D800014C06BA17CA18DA19EA10E944900DC0121
:101D9000CB019AA389A389A19AA19E8F8D8F8D8D46
:101DA0009E8D0197F1F79E8F8D8F80E069AD0E9427
:101DB000770980E090E0A0E8BFE3898F9A8FAB8F2E
:101DC000BC8F698D7A8D8B8D9C8D20E030E04AE749
:101DD00053E40E941F02DC01CB018D8B9E8BAF8BE5
:101DE000B88F6D897E898F89988D20E030E040E83A
:101DF0005FE30E94790388232CF481E090E09C8BC0
:101E00008B8B3FC06D897E898F89988D20E03FEF55
:101E10004FE757E40E94190318164CF5698D7A8D27
:101E20008B8D9C8D20E030E040E251E40E941F0247
:101E3000DC01CB01BC01CD010E944900DC01CB01DA
:101E40009C8B8B8B0FC089E190E09A8B898B898961
:101E50009A890197F1F79A8B898B8B899C890197D5
:101E60009C8B8B8B8B899C89009769F714C06D893B
:101E70007E898F89988D0E944900DC01CB019C8B63
:101E80008B8B8B899C89988B8F878F8598890197FD
:101E9000F1F7988B8F8782E062E040E00E94BF08F4
:101EA00080E090E0A0E8BFE38B879C87AD87BE878A
:101EB0006B857C858D859E8520E030E04AE753E484
:101EC0000E941F02DC01CB018F839887A987BA8704
:101ED0006F81788589859A8520E030E040E85FE36E
:101EE0000E94790388232CF481E090E09E838D8307
:101EF0003FC06F81788589859A8520E03FEF4FE765
:101F000057E40E94190318164CF56B857C858D8566
:101F10009E8520E030E040E251E40E941F02DC0197
:101F2000CB01BC01CD010E944900DC01CB019E83A5
:101F30008D830FC089E190E09C838B838B819C8192
:101F40000197F1F79C838B838D819E8101979E83FE
:101F50008D838D819E81009769F714C06F8178858C
:101F600089859A850E944900DC01CB019E838D837F
:101F70008D819E819A83898389819A810197F1F766
:101F80009A838983E9960FB6F894DEBF0FBECDBF62
:101F9000CF91DF910895DF93CF9300D00F92CDB70B
:101FA000DEB79B838A8319820EC08981282F30E097
:101FB0008A819B81FC01E20FF31F80810E94DC0D6E
:101FC00089818F5F89838981282F30E08A819B8175
:101FD000FC01E20FF31F8081882339F70F900F90E7
:101FE0000F90CF91DF910895DF93CF9300D000D071
:101FF0000F92CDB7DEB78A836B838A81282F30E0BA
:102000003D832C838C819D8181309105C1F02C8191
:102010003D81223031052CF48C819D81009761F047
:1020200019C02C813D812230310569F08C819D8160
:102030008330910561F00EC08B8189830BC08B8149
:10204000805C898307C08B81805F898303C08B811B
:10205000805B8983898180680E94ED0B0F900F90CF
:102060000F900F900F90CF91DF910895DF93CF9352
:1020700000D000D0CDB7DEB789836A835C834B8301
:1020800089816A810E94F40F8B819C810E94CB0F11
:102090000F900F900F900F90CF91DF910895DF93E5
:1020A000CF93CDB7DEB762970FB6F894DEBF0FBE01
:1020B000CDBF9A8B898B89899A899E012F5F3F4F6B
:1020C000B9014AE050E00E94DE11CE0101960E9463
:1020D000CB0F62960FB6F894DEBF0FBECDBFCF9187
:1020E000DF910895DF93CF93CDB7DEB781E00E94F3
:1020F000ED0BCF91DF9108950F931F93DF93CF9353
:1021000000D000D0CDB7DEB79B838A836C83198261
:1021100012C08981282F30E08A819B818C01020FB7
:10212000131F0E94BF09F80180838AE20E94DC0D20
:1021300089818F5F898399818C81981750F30F90E3
:102140000F900F900F90CF91DF911F910F910895F5
:10215000DF93CF93CDB7DEB766970FB6F894DEBFA7
:102160000FBECDBF60E875E280E090E00E94C5063A
:102170000E94510B0E94721020E630E080E060E087
:10218000A9010E94361021E730E081E060E0A9015A
:102190000E943610CE01029665E00E947C1083E218
:1021A0008F831886CE0102960E94370722E730E01F
:1021B00080E060E0A9010E94361024E830E081E070
:1021C00060E0A9010E943610CE01099665E00E94E8
:1021D0007C1083E28E871F86CE0109960E94370706
:1021E0000E942807813031F60E9472102FE830E0FB
:1021F00080E060E0A9010E9436102DE930E081E026
:1022000060E0A9010E9436100E94BF09898389817C
:102210008B3221F582E00E9411070E94721020E6A5
:1022200030E080E060E0A9010E94361021E730E054
:1022300081E060E0A9010E943610CE01409665E081
:102240000E947C1083E28D8B1E8ACE0140960E94F4
:1022500037070E9428078130E9F6C8CF89818D327F
:1022600029F683E00E9411070E94721020E630E0F8
:1022700080E060E0A9010E94361021E730E081E0B3
:1022800060E0A9010E943610CE01409665E00E94F0
:102290007C1083E28D8B1E8ACE0140960E94370708
:1022A0000E9428078130E9F60E9472102DEA30E082
:1022B00080E060E0A9010E94361021E730E081E073
:1022C00060E0A9010E943610CE01029665E00E94EE
:1022D0007C1083E28D8B1E8ACE0102960E94370706
:1022E00085CFAA1BBB1B51E107C0AA1FBB1FA617A6
:1022F000B70710F0A61BB70B881F991F5A95A9F7AF
:1023000080959095BC01CD010895A1E21A2EAA1BDB
:10231000BB1BFD010DC0AA1FBB1FEE1FFF1FA21795
:10232000B307E407F50720F0A21BB30BE40BF50B92
:10233000661F771F881F991F1A9469F7609570951B
:10234000809590959B01AC01BD01CF0108952F921E
:102350003F924F925F926F927F928F929F92AF9235
:10236000BF92CF92DF92EF92FF920F931F93CF9382
:10237000DF93CDB7DEB7CA1BDB0B0FB6F894DEBF19
:102380000FBECDBF09942A88398848885F846E843F
:102390007D848C849B84AA84B984C884DF80EE8089
:1023A000FD800C811B81AA81B981CE0FD11D0FB692
:1023B000F894DEBF0FBECDBFED010895FB019F0174
:1023C000E8944230C4F04532B4F44A3029F497FB23
:1023D0001EF4909581959F4F642F77270E9471116D
:1023E000805D8A330CF0895D8193CB010097A1F762
:1023F00016F45DE251931082C9010C94FF11DC01C7
:10240000FC01672F71917723E1F7329704C07C912B
:102410006D9370836291AE17BF07C8F30895F89467
:02242000FFCFEC
:10242200706C7A20656E7465722070617373203AE5
:102432000000706C7A2072652D656E74657220746E
:102442006865200073616D6520706173733A002BBB
:10245200203A204F70656E20446F6F72002D203A33
:10246200204368616E6765205061737300656E7406
:102472006572206E65772070617373203A000000E8
:0624820000000000000054
:00000001FF
